{
  "contractName": "HelloWorld",
  "abi": [
    {
      "inputs": [],
      "payable": false,
      "stateMutability": "nonpayable",
      "type": "constructor"
    },
    {
      "anonymous": false,
      "inputs": [
        {
          "indexed": false,
          "name": "by",
          "type": "string"
        },
        {
          "indexed": false,
          "name": "newMessage",
          "type": "string"
        }
      ],
      "name": "MessageSet",
      "type": "event"
    },
    {
      "constant": true,
      "inputs": [],
      "name": "getMessage",
      "outputs": [
        {
          "name": "person",
          "type": "string"
        },
        {
          "name": "message",
          "type": "string"
        }
      ],
      "payable": false,
      "stateMutability": "view",
      "type": "function"
    },
    {
      "constant": false,
      "inputs": [
        {
          "name": "by",
          "type": "string"
        },
        {
          "name": "message",
          "type": "string"
        }
      ],
      "name": "setMessage",
      "outputs": [],
      "payable": false,
      "stateMutability": "nonpayable",
      "type": "function"
    }
  ],
  "bytecode": "0x608060405234801561001057600080fd5b506100946040805190810160405280600381526020017f4d617800000000000000000000000000000000000000000000000000000000008152506040805190810160405280601881526020017f4174206c6561737420776520617265206c6561726e696e670000000000000000815250610099640100000000026401000000009004565b610279565b81600090805190602001906100af9291906101d4565b5080600190805190602001906100c69291906101d4565b507f4bd1ad2e36229c393f71ada6d725b8f7a71763b31f442f79f3eb0648f28a97bf8282604051808060200180602001838103835285818151815260200191508051906020019080838360005b8381101561012e578082015181840152602081019050610113565b50505050905090810190601f16801561015b5780820380516001836020036101000a031916815260200191505b50838103825284818151815260200191508051906020019080838360005b83811015610194578082015181840152602081019050610179565b50505050905090810190601f1680156101c15780820380516001836020036101000a031916815260200191505b5094505050505060405180910390a15050565b828054600181600116156101000203166002900490600052602060002090601f016020900481019282601f1061021557805160ff1916838001178555610243565b82800160010185558215610243579182015b82811115610242578251825591602001919060010190610227565b5b5090506102509190610254565b5090565b61027691905b8082111561027257600081600090555060010161025a565b5090565b90565b61054f806102886000396000f30060806040526004361061004c576000357c0100000000000000000000000000000000000000000000000000000000900463ffffffff1680639cd38a4914610051578063ce6d41de14610100575b600080fd5b34801561005d57600080fd5b506100fe600480360381019080803590602001908201803590602001908080601f0160208091040260200160405190810160405280939291908181526020018383808284378201915050505050509192919290803590602001908201803590602001908080601f01602080910402602001604051908101604052809392919081815260200183838082843782019150505050505091929192905050506101fc565b005b34801561010c57600080fd5b50610115610337565b604051808060200180602001838103835285818151815260200191508051906020019080838360005b8381101561015957808201518184015260208101905061013e565b50505050905090810190601f1680156101865780820380516001836020036101000a031916815260200191505b50838103825284818151815260200191508051906020019080838360005b838110156101bf5780820151818401526020810190506101a4565b50505050905090810190601f1680156101ec5780820380516001836020036101000a031916815260200191505b5094505050505060405180910390f35b816000908051906020019061021292919061047e565b50806001908051906020019061022992919061047e565b507f4bd1ad2e36229c393f71ada6d725b8f7a71763b31f442f79f3eb0648f28a97bf8282604051808060200180602001838103835285818151815260200191508051906020019080838360005b83811015610291578082015181840152602081019050610276565b50505050905090810190601f1680156102be5780820380516001836020036101000a031916815260200191505b50838103825284818151815260200191508051906020019080838360005b838110156102f75780820151818401526020810190506102dc565b50505050905090810190601f1680156103245780820380516001836020036101000a031916815260200191505b5094505050505060405180910390a15050565b60608060006001818054600181600116156101000203166002900480601f0160208091040260200160405190810160405280929190818152602001828054600181600116156101000203166002900480156103d35780601f106103a8576101008083540402835291602001916103d3565b820191906000526020600020905b8154815290600101906020018083116103b657829003601f168201915b50505050509150808054600181600116156101000203166002900480601f01602080910402602001604051908101604052809291908181526020018280546001816001161561010002031660029004801561046f5780601f106104445761010080835404028352916020019161046f565b820191906000526020600020905b81548152906001019060200180831161045257829003601f168201915b50505050509050915091509091565b828054600181600116156101000203166002900490600052602060002090601f016020900481019282601f106104bf57805160ff19168380011785556104ed565b828001600101855582156104ed579182015b828111156104ec5782518255916020019190600101906104d1565b5b5090506104fa91906104fe565b5090565b61052091905b8082111561051c576000816000905550600101610504565b5090565b905600a165627a7a72305820fda9b1fcfe6d3abaafa38cc2f1768cfe46da83c1e9744d16271efdd47747a4100029",
  "source": "pragma solidity ^0.4.23;\r\n\r\ncontract HelloWorld {\r\n\r\n    event MessageSet(string by, string newMessage);\r\n\r\n    string private _person;\r\n    string private _message;\r\n\r\n    constructor() public {\r\n        setMessage(\"Max\", \"At least we are learning\");\r\n    }\r\n\r\n    function getMessage() public view returns (string person, string message) {\r\n        return (_person, _message);\r\n    }\r\n\r\n    function setMessage(string by, string message) public {\r\n        _person = by;\r\n        _message = message;\r\n        emit MessageSet(by, message);\r\n    } \r\n}",
  "sourcePath": "C:\\Users\\Martijn.Doornik\\Projects\\api.forus.io-ethereum\\api\\truffle\\contracts\\HelloWorld.sol",
  "compiler": {
    "name": "solc",
    "version": "0.4.24+commit.e67f0147.Emscripten.clang"
  },
  "schemaVersion": "2.0.0",
  "updatedAt": "2018-06-13T13:19:00.479Z"
}